{"abi":[{"type":"constructor","inputs":[{"name":"_uri","type":"string","internalType":"string"},{"name":"_platformAddress","type":"address","internalType":"address"},{"name":"_paymentToken","type":"address","internalType":"address"}],"stateMutability":"nonpayable"},{"type":"function","name":"_safeFreeMint","inputs":[{"name":"to","type":"address","internalType":"address"},{"name":"tokenId","type":"uint256","internalType":"uint256"}],"outputs":[],"stateMutability":"nonpayable"},{"type":"function","name":"balanceOf","inputs":[{"name":"account","type":"address","internalType":"address"},{"name":"id","type":"uint256","internalType":"uint256"}],"outputs":[{"name":"","type":"uint256","internalType":"uint256"}],"stateMutability":"view"},{"type":"function","name":"balanceOfBatch","inputs":[{"name":"accounts","type":"address[]","internalType":"address[]"},{"name":"ids","type":"uint256[]","internalType":"uint256[]"}],"outputs":[{"name":"","type":"uint256[]","internalType":"uint256[]"}],"stateMutability":"view"},{"type":"function","name":"batchFreeMint","inputs":[{"name":"recipients","type":"address[]","internalType":"address[]"},{"name":"tokenIds","type":"uint256[]","internalType":"uint256[]"}],"outputs":[],"stateMutability":"nonpayable"},{"type":"function","name":"batchMintChapter","inputs":[{"name":"recipients","type":"address[]","internalType":"address[]"},{"name":"tokenIds","type":"uint256[]","internalType":"uint256[]"}],"outputs":[],"stateMutability":"nonpayable"},{"type":"function","name":"createChapter","inputs":[{"name":"mangaTitle","type":"string","internalType":"string"},{"name":"description","type":"string","internalType":"string"},{"name":"language","type":"string","internalType":"string"},{"name":"publishTime","type":"uint256","internalType":"uint256"},{"name":"maxCopies","type":"uint256","internalType":"uint256"},{"name":"maxPerUser","type":"uint256","internalType":"uint256"},{"name":"uri_","type":"string","internalType":"string"}],"outputs":[{"name":"","type":"uint256","internalType":"uint256"}],"stateMutability":"nonpayable"},{"type":"function","name":"exists","inputs":[{"name":"id","type":"uint256","internalType":"uint256"}],"outputs":[{"name":"","type":"bool","internalType":"bool"}],"stateMutability":"view"},{"type":"function","name":"freeMint","inputs":[{"name":"to","type":"address","internalType":"address"},{"name":"tokenId","type":"uint256","internalType":"uint256"}],"outputs":[],"stateMutability":"nonpayable"},{"type":"function","name":"getChapterInfo","inputs":[{"name":"tokenId","type":"uint256","internalType":"uint256"}],"outputs":[{"name":"","type":"tuple","internalType":"struct MangaNFT.MangaChapter","components":[{"name":"mangaTitle","type":"string","internalType":"string"},{"name":"description","type":"string","internalType":"string"},{"name":"language","type":"string","internalType":"string"},{"name":"publishTime","type":"uint256","internalType":"uint256"},{"name":"mintTime","type":"uint256","internalType":"uint256"},{"name":"maxCopies","type":"uint256","internalType":"uint256"},{"name":"maxPerUser","type":"uint256","internalType":"uint256"},{"name":"creator","type":"address","internalType":"address"},{"name":"uri","type":"string","internalType":"string"}]}],"stateMutability":"view"},{"type":"function","name":"isApprovedForAll","inputs":[{"name":"account","type":"address","internalType":"address"},{"name":"operator","type":"address","internalType":"address"}],"outputs":[{"name":"","type":"bool","internalType":"bool"}],"stateMutability":"view"},{"type":"function","name":"mangaChapters","inputs":[{"name":"","type":"uint256","internalType":"uint256"}],"outputs":[{"name":"mangaTitle","type":"string","internalType":"string"},{"name":"description","type":"string","internalType":"string"},{"name":"language","type":"string","internalType":"string"},{"name":"publishTime","type":"uint256","internalType":"uint256"},{"name":"mintTime","type":"uint256","internalType":"uint256"},{"name":"maxCopies","type":"uint256","internalType":"uint256"},{"name":"maxPerUser","type":"uint256","internalType":"uint256"},{"name":"creator","type":"address","internalType":"address"},{"name":"uri","type":"string","internalType":"string"}],"stateMutability":"view"},{"type":"function","name":"mintChapter","inputs":[{"name":"to","type":"address","internalType":"address"},{"name":"tokenId","type":"uint256","internalType":"uint256"}],"outputs":[],"stateMutability":"nonpayable"},{"type":"function","name":"mintTimeout","inputs":[],"outputs":[{"name":"","type":"uint256","internalType":"uint256"}],"stateMutability":"view"},{"type":"function","name":"mintedPerUser","inputs":[{"name":"","type":"uint256","internalType":"uint256"},{"name":"","type":"address","internalType":"address"}],"outputs":[{"name":"","type":"uint256","internalType":"uint256"}],"stateMutability":"view"},{"type":"function","name":"owner","inputs":[],"outputs":[{"name":"","type":"address","internalType":"address"}],"stateMutability":"view"},{"type":"function","name":"paymentToken","inputs":[],"outputs":[{"name":"","type":"address","internalType":"contract IERC20"}],"stateMutability":"view"},{"type":"function","name":"payments","inputs":[{"name":"","type":"address","internalType":"address"},{"name":"","type":"uint256","internalType":"uint256"}],"outputs":[{"name":"tokenId","type":"uint256","internalType":"uint256"},{"name":"timestamp","type":"uint256","internalType":"uint256"},{"name":"amount","type":"uint256","internalType":"uint256"},{"name":"minted","type":"bool","internalType":"bool"}],"stateMutability":"view"},{"type":"function","name":"platformAddress","inputs":[],"outputs":[{"name":"","type":"address","internalType":"address"}],"stateMutability":"view"},{"type":"function","name":"refundIfExpired","inputs":[{"name":"buyer","type":"address","internalType":"address"},{"name":"tokenId","type":"uint256","internalType":"uint256"}],"outputs":[],"stateMutability":"nonpayable"},{"type":"function","name":"renounceOwnership","inputs":[],"outputs":[],"stateMutability":"nonpayable"},{"type":"function","name":"safeBatchTransferFrom","inputs":[{"name":"from","type":"address","internalType":"address"},{"name":"to","type":"address","internalType":"address"},{"name":"ids","type":"uint256[]","internalType":"uint256[]"},{"name":"values","type":"uint256[]","internalType":"uint256[]"},{"name":"data","type":"bytes","internalType":"bytes"}],"outputs":[],"stateMutability":"nonpayable"},{"type":"function","name":"safeTransferFrom","inputs":[{"name":"from","type":"address","internalType":"address"},{"name":"to","type":"address","internalType":"address"},{"name":"id","type":"uint256","internalType":"uint256"},{"name":"value","type":"uint256","internalType":"uint256"},{"name":"data","type":"bytes","internalType":"bytes"}],"outputs":[],"stateMutability":"nonpayable"},{"type":"function","name":"setApprovalForAll","inputs":[{"name":"operator","type":"address","internalType":"address"},{"name":"approved","type":"bool","internalType":"bool"}],"outputs":[],"stateMutability":"nonpayable"},{"type":"function","name":"supportsInterface","inputs":[{"name":"interfaceId","type":"bytes4","internalType":"bytes4"}],"outputs":[{"name":"","type":"bool","internalType":"bool"}],"stateMutability":"view"},{"type":"function","name":"totalSupply","inputs":[],"outputs":[{"name":"","type":"uint256","internalType":"uint256"}],"stateMutability":"view"},{"type":"function","name":"totalSupply","inputs":[{"name":"id","type":"uint256","internalType":"uint256"}],"outputs":[{"name":"","type":"uint256","internalType":"uint256"}],"stateMutability":"view"},{"type":"function","name":"transferOwnership","inputs":[{"name":"newOwner","type":"address","internalType":"address"}],"outputs":[],"stateMutability":"nonpayable"},{"type":"function","name":"updateChapterDescription","inputs":[{"name":"tokenId","type":"uint256","internalType":"uint256"},{"name":"newDescription","type":"string","internalType":"string"}],"outputs":[],"stateMutability":"nonpayable"},{"type":"function","name":"updateMangaTitle","inputs":[{"name":"tokenId","type":"uint256","internalType":"uint256"},{"name":"newTitle","type":"string","internalType":"string"}],"outputs":[],"stateMutability":"nonpayable"},{"type":"function","name":"updatePaymentToken","inputs":[{"name":"newToken","type":"address","internalType":"address"}],"outputs":[],"stateMutability":"nonpayable"},{"type":"function","name":"updatePlatformAddress","inputs":[{"name":"newAddress","type":"address","internalType":"address"}],"outputs":[],"stateMutability":"nonpayable"},{"type":"function","name":"uri","inputs":[{"name":"tokenId","type":"uint256","internalType":"uint256"}],"outputs":[{"name":"","type":"string","internalType":"string"}],"stateMutability":"view"},{"type":"event","name":"ApprovalForAll","inputs":[{"name":"account","type":"address","indexed":true,"internalType":"address"},{"name":"operator","type":"address","indexed":true,"internalType":"address"},{"name":"approved","type":"bool","indexed":false,"internalType":"bool"}],"anonymous":false},{"type":"event","name":"BatchFreeMinted","inputs":[{"name":"successfulRecipients","type":"address[]","indexed":false,"internalType":"address[]"},{"name":"successfulTokenIds","type":"uint256[]","indexed":false,"internalType":"uint256[]"},{"name":"failedRecipients","type":"address[]","indexed":false,"internalType":"address[]"},{"name":"failedTokenIds","type":"uint256[]","indexed":false,"internalType":"uint256[]"},{"name":"reasons","type":"string[]","indexed":false,"internalType":"string[]"}],"anonymous":false},{"type":"event","name":"BatchMinted","inputs":[{"name":"recipients","type":"address[]","indexed":false,"internalType":"address[]"},{"name":"tokenIds","type":"uint256[]","indexed":false,"internalType":"uint256[]"}],"anonymous":false},{"type":"event","name":"ChapterCreated","inputs":[{"name":"tokenId","type":"uint256","indexed":true,"internalType":"uint256"},{"name":"creator","type":"address","indexed":true,"internalType":"address"},{"name":"mangaTitle","type":"string","indexed":false,"internalType":"string"}],"anonymous":false},{"type":"event","name":"ChapterDescriptionUpdated","inputs":[{"name":"tokenId","type":"uint256","indexed":true,"internalType":"uint256"},{"name":"newDescription","type":"string","indexed":false,"internalType":"string"}],"anonymous":false},{"type":"event","name":"ChapterMinted","inputs":[{"name":"tokenId","type":"uint256","indexed":true,"internalType":"uint256"},{"name":"to","type":"address","indexed":true,"internalType":"address"},{"name":"mintTime","type":"uint256","indexed":false,"internalType":"uint256"}],"anonymous":false},{"type":"event","name":"ChapterTitleUpdated","inputs":[{"name":"tokenId","type":"uint256","indexed":true,"internalType":"uint256"},{"name":"newTitle","type":"string","indexed":false,"internalType":"string"}],"anonymous":false},{"type":"event","name":"MangaTitleUpdated","inputs":[{"name":"tokenId","type":"uint256","indexed":true,"internalType":"uint256"},{"name":"newTitle","type":"string","indexed":false,"internalType":"string"}],"anonymous":false},{"type":"event","name":"OwnershipTransferred","inputs":[{"name":"previousOwner","type":"address","indexed":true,"internalType":"address"},{"name":"newOwner","type":"address","indexed":true,"internalType":"address"}],"anonymous":false},{"type":"event","name":"PaymentReceived","inputs":[{"name":"buyer","type":"address","indexed":true,"internalType":"address"},{"name":"tokenId","type":"uint256","indexed":true,"internalType":"uint256"},{"name":"amount","type":"uint256","indexed":false,"internalType":"uint256"}],"anonymous":false},{"type":"event","name":"PaymentTokenUpdated","inputs":[{"name":"oldToken","type":"address","indexed":true,"internalType":"address"},{"name":"newToken","type":"address","indexed":true,"internalType":"address"}],"anonymous":false},{"type":"event","name":"PlatformAddressUpdated","inputs":[{"name":"oldAddress","type":"address","indexed":true,"internalType":"address"},{"name":"newAddress","type":"address","indexed":true,"internalType":"address"}],"anonymous":false},{"type":"event","name":"RefundIssued","inputs":[{"name":"buyer","type":"address","indexed":true,"internalType":"address"},{"name":"tokenId","type":"uint256","indexed":true,"internalType":"uint256"},{"name":"amount","type":"uint256","indexed":false,"internalType":"uint256"}],"anonymous":false},{"type":"event","name":"TransferBatch","inputs":[{"name":"operator","type":"address","indexed":true,"internalType":"address"},{"name":"from","type":"address","indexed":true,"internalType":"address"},{"name":"to","type":"address","indexed":true,"internalType":"address"},{"name":"ids","type":"uint256[]","indexed":false,"internalType":"uint256[]"},{"name":"values","type":"uint256[]","indexed":false,"internalType":"uint256[]"}],"anonymous":false},{"type":"event","name":"TransferSingle","inputs":[{"name":"operator","type":"address","indexed":true,"internalType":"address"},{"name":"from","type":"address","indexed":true,"internalType":"address"},{"name":"to","type":"address","indexed":true,"internalType":"address"},{"name":"id","type":"uint256","indexed":false,"internalType":"uint256"},{"name":"value","type":"uint256","indexed":false,"internalType":"uint256"}],"anonymous":false},{"type":"event","name":"URI","inputs":[{"name":"value","type":"string","indexed":false,"internalType":"string"},{"name":"id","type":"uint256","indexed":true,"internalType":"uint256"}],"anonymous":false},{"type":"error","name":"ERC1155InsufficientBalance","inputs":[{"name":"sender","type":"address","internalType":"address"},{"name":"balance","type":"uint256","internalType":"uint256"},{"name":"needed","type":"uint256","internalType":"uint256"},{"name":"tokenId","type":"uint256","internalType":"uint256"}]},{"type":"error","name":"ERC1155InvalidApprover","inputs":[{"name":"approver","type":"address","internalType":"address"}]},{"type":"error","name":"ERC1155InvalidArrayLength","inputs":[{"name":"idsLength","type":"uint256","internalType":"uint256"},{"name":"valuesLength","type":"uint256","internalType":"uint256"}]},{"type":"error","name":"ERC1155InvalidOperator","inputs":[{"name":"operator","type":"address","internalType":"address"}]},{"type":"error","name":"ERC1155InvalidReceiver","inputs":[{"name":"receiver","type":"address","internalType":"address"}]},{"type":"error","name":"ERC1155InvalidSender","inputs":[{"name":"sender","type":"address","internalType":"address"}]},{"type":"error","name":"ERC1155MissingApprovalForAll","inputs":[{"name":"operator","type":"address","internalType":"address"},{"name":"owner","type":"address","internalType":"address"}]},{"type":"error","name":"OwnableInvalidOwner","inputs":[{"name":"owner","type":"address","internalType":"address"}]},{"type":"error","name":"OwnableUnauthorizedAccount","inputs":[{"name":"account","type":"address","internalType":"address"}]}],"bytecode":{"object":"0x604060808152346200033f57620033cc803803806200001e8162000343565b9283398101906060818303126200033f5780516001600160401b03908181116200033f578201601f918483830112156200033f578151948186116200031657602095601f1993620000758683018616890162000343565b928284528883830101116200033f5787905f5b8381106200032a5750505f9183010152620000b287620000aa88880162000369565b960162000369565b9381519283116200031657600254916001928381811c911680156200030b575b89821014620002f757828111620002ae575b50879184116001146200024a57839450908392915f946200023e575b50501b915f199060031b1c1916176002555b3315620002275760058054336001600160a01b031980831682179093558651929492936001600160a01b0393909284929083167f8be0079c531659141344cd1fd0a4f28419497f9722a3daafe3b4186f6b6457e05f80a361012c60095516928315620001e5575016928315620001a2575081600754161760075560085416176008555161304d90816200037f8239f35b60649085519062461bcd60e51b82526004820152601560248201527f496e76616c696420746f6b656e206164647265737300000000000000000000006044820152fd5b62461bcd60e51b815260048101869052601860248201527f496e76616c696420706c6174666f726d206164647265737300000000000000006044820152606490fd5b8351631e4fbdf760e01b81525f6004820152602490fd5b015192505f8062000100565b919383169160025f5283885f20935f5b8a888383106200029657505050106200027d575b505050811b0160025562000112565b01515f1960f88460031b161c191690555f80806200026e565b8686015188559096019594850194879350016200025a565b60025f52885f208380870160051c8201928b8810620002ed575b0160051c019084905b828110620002e1575050620000e4565b5f8155018490620002d1565b92508192620002c8565b634e487b7160e01b5f52602260045260245ffd5b90607f1690620000d2565b634e487b7160e01b5f52604160045260245ffd5b81810183015185820184015289920162000088565b5f80fd5b6040519190601f01601f191682016001600160401b038111838210176200031657604052565b51906001600160a01b03821682036200033f5756fe60806040526004361015610011575f80fd5b5f3560e01c8062fdd58e1461021357806301ffc9a71461020e5780630a290951146102095780630e89341c1461020457806318160ddd146101ff5780632eb2c2d6146101fa5780633013ce29146101f55780634a51e896146101f05780634ccf1b34146101eb5780634e1273f4146101e65780634f558e79146101e15780635160eb7d146101dc578063613e019a146101d7578063715018a6146101d257806375709492146101cd57806385cd3e64146101c85780638da5cb5b146101c35780638f9f193f146101be5780639883566e146101b9578063994dddcd146101b4578063a22cb465146101af578063a5169404146101aa578063ab63385c146101a5578063ad31fa71146101a0578063adac14ea1461019b578063bd396c7614610196578063bd85b03914610191578063dbe55e561461018c578063e985e9c514610187578063f242432a14610182578063f2fde38b1461017d5763fd0f5a5914610178575f80fd5b611e0a565b611c34565b611b12565b611aae565b611a86565b611a5c565b6118ca565b611826565b6116ad565b611623565b6114c3565b611411565b6113ea565b61131d565b6112a5565b61127d565b61117b565b610f19565b610ebe565b610d5e565b610aa4565b6109fe565b610942565b61083a565b61074a565b610675565b61054b565b6103de565b61038f565b6102f9565b61028b565b61022d565b6001600160a01b0381160361022957565b5f80fd5b3461022957604036600319011261022957602061027060043561024f81610218565b6024355f525f835260405f209060018060a01b03165f5260205260405f2090565b54604051908152f35b6001600160e01b031981160361022957565b346102295760203660031901126102295760206004356102aa81610279565b63ffffffff60e01b16636cdb3d1360e11b81149081156102e8575b81156102d7575b506040519015158152f35b6301ffc9a760e01b1490505f6102cc565b6303a24d0760e21b811491506102c5565b3461022957604036600319011261022957602061027060243561031b81610218565b6004355f52600a835260405f209060018060a01b03165f5260205260405f2090565b91908251928382525f5b848110610367575050825f602080949584010152601f8019910116010190565b602081830181015184830182015201610347565b90602061038c92818152019061033d565b90565b34610229576020366003190112610229576004355f52600b6020526103d06103bc600860405f2001611cf7565b60405191829160208352602083019061033d565b0390f35b5f91031261022957565b34610229575f366003190112610229576020600454604051908152f35b634e487b7160e01b5f52604160045260245ffd5b61012081019081106001600160401b0382111761042b57604052565b6103fb565b6001600160401b03811161042b57604052565b90601f801991011681019081106001600160401b0382111761042b57604052565b604051906104718261040f565b565b6001600160401b03811161042b5760051b60200190565b9080601f830112156102295760209082356104a481610473565b936104b26040519586610443565b81855260208086019260051b82010192831161022957602001905b8282106104db575050505090565b813581529083019083016104cd565b6001600160401b03811161042b57601f01601f191660200190565b81601f820112156102295780359061051c826104ea565b9261052a6040519485610443565b8284526020838301011161022957815f926020809301838601378301015290565b346102295760a0366003190112610229576004803561056981610218565b60243561057581610218565b6001600160401b039060443582811161022957610595903690860161048a565b90606435838111610229576105ad903690870161048a565b92608435908111610229576105c59036908701610505565b936001600160a01b03808216903382141580610652575b6106255783161561060e57156105f8576105f69550612902565b005b604051626a0d4560e21b81525f81880152602490fd5b604051632bfa23e760e11b81525f81890152602490fd5b6040805163711bec9160e11b815233818b019081526001600160a01b038616602082015290918291010390fd5b505f82815260016020908152604080832033845290915290205460ff16156105dc565b34610229575f366003190112610229576008546040516001600160a01b039091168152602090f35b9061038c91602081528151906106c16101209283602084015261014083019061033d565b916106f56106e1602086015194601f19958686830301604087015261033d565b60408601518585830301606086015261033d565b9360608101516080840152608081015160a084015260a081015160c084015260c081015160e084015260e08101519061073b610100928386019060018060a01b03169052565b0151928285030191015261033d565b34610229576020366003190112610229576103d060405161076a8161040f565b6060908181528160208201528160408201525f828201525f60808201525f60a08201525f60c08201525f60e082015281610100809201526004355f52600b60205261082a600860405f206107bc610464565b946107c682611cf7565b86526107d460018301611cf7565b60208701526107e560028301611cf7565b604087015260038201549086015260048101546080860152600581015460a0860152600681015460c086015260078101546001600160a01b031660e086015201611cf7565b908201526040519182918261069d565b346102295760203660031901126102295760043561085781610218565b61085f6127ec565b6001600160a01b039081169081156108c15760085481166001600160a01b0316600880546001600160a01b0319166001600160a01b038516179055167f5efdfedf5aef119c431263f0656093045dffdf44b3d8f1b0f158dc295c3a0f8e5f80a3005b60405162461bcd60e51b8152602060048201526015602482015274496e76616c696420746f6b656e206164647265737360581b6044820152606490fd5b9081518082526020808093019301915f5b82811061091d575050505090565b83518552938101939281019260010161090f565b90602061038c9281815201906108fe565b34610229576040366003190112610229576004356001600160401b03808211610229573660238301121561022957816004013561097e81610473565b9261098c6040519485610443565b8184526020916024602086019160051b8301019136831161022957602401905b8282106109e55785602435868111610229576103d0916109d36109d992369060040161048a565b90611ed1565b60405191829182610931565b83809183356109f381610218565b8152019101906109ac565b34610229576020366003190112610229576004355f526003602052602060405f20541515604051908152f35b9181601f84011215610229578235916001600160401b038311610229576020808501948460051b01011161022957565b6040600319820112610229576001600160401b03916004358381116102295782610a8691600401610a2a565b9390939260243591821161022957610aa091600401610a2a565b9091565b3461022957610ab236610a5a565b909192610aca60018060a01b03600754163314611f67565b610ad5828514611fac565b610ade84611e8b565b93610ae883611e8b565b93610af282611e8b565b91610afc85611e8b565b93610b0682611ff0565b955f935f935f5b818110610b5d577fd3ae4a4aab6dfddce0e8bb54f2e3ba3b14aa46440871acfba93b6b1e9c6aaa888b8d610b588d8d8d8d8d80875287528082528083528352604051958695866121a4565b0390a1005b610b70610b6b828488612039565b612049565b610b7b828686612039565b35303b15610229576040516321734f9960e21b81526001600160a01b0392909216600483015260248201528c905f8160448183305af19081610d16575b50610cd657506001610bc8612085565b6308c379a014610c56575b610be2575b6001905b01610b0d565b95610c4e600191610c13610bfa610b6b8b878b612039565b610c04838d611ebd565b6001600160a01b039091169052565b610c1e898787612039565b35610c29828d611ebd565b528b610c3d82610c3761212f565b92611ebd565b52610c48818d611ebd565b50612072565b969050610bd8565b610c5e6120a0565b80610c6a575b50610bd3565b5f989150610c79838589612039565b610c8290612049565b610c8c838c611ebd565b6001600160a01b039091169052610ca4838787612039565b35610caf838d611ebd565b52610cba828d611ebd565b52610cc5818c611ebd565b50610ccf90612072565b965f610c64565b86610cf3610d1092610c04859a610c37610b6b6001988a8e612039565b8c610d0a82610d038b8a8a612039565b3592611ebd565b52612072565b95610bdc565b80610d23610d2992610430565b806103d4565b5f610bb8565b9060406003198301126102295760043591602435906001600160401b0382116102295761038c91600401610505565b3461022957610d6c36610d2f565b90805f52602091600b60205260405f2092610d9460018060a01b03600786015416331461224e565b8151906001600160401b03821161042b57610db982610db38754611cbf565b8761229a565b602090601f8311600114610e2e575093610e0f82610e1e94937f8edf7d255d88f7c0d6cadf58dbef50a5cb3817abb4e85228b6cb3838f3f8747a96975f91610e23575b508160011b915f199060031b1c19161790565b90555b6040519182918261037b565b0390a2005b90508401515f610dfc565b90601f198316610e41875f5260205f2090565b925f905b828210610ea6575050927f8edf7d255d88f7c0d6cadf58dbef50a5cb3817abb4e85228b6cb3838f3f8747a95969260019282610e1e979610610e8e575b5050811b019055610e12565b8501515f1960f88460031b161c191690555f80610e82565b80600185968294968a01518155019501930190610e45565b34610229575f36600319011261022957610ed66127ec565b600580546001600160a01b031981169091555f906001600160a01b03167f8be0079c531659141344cd1fd0a4f28419497f9722a3daafe3b4186f6b6457e08280a3005b3461022957610f2736610a5a565b600780549294926001600160a01b0390610f449082163314611f67565b610f4f838614611fac565b5f905b858210610f8e57505050610b58907f46c094f2f2404297a48a7c4d47697ed07cd7dcb542f35259c65ace5c1f68e1db94604051948594856123b8565b9093610fa08587839998969599612039565b3591610fab83610218565b610fb6868589612039565b3593610fc6828a54163314611f67565b81841695610fd58715156124f7565b610fe7865f52600b60205260405f2090565b93611009610ffd885f52600360205260405f2090565b54600587015411612537565b611043611037876110228a5f52600a60205260405f2090565b9060018060a01b03165f5260205260405f2090565b54600687015411612574565b6001600160a01b0386165f908152600c60205260408120909a90945f5b865481101561115e57896110748289611605565b50541480611139575b80611115575b61108f57600101611060565b6001979199949c5060036110b1969e99939b966110c0926110de969e99611605565b5001805460ff19166001179055565b6110c9876125db565b600442910155826110d861210d565b91612818565b6040514281527f8839bc12477bea32ae8418b1076574bbb78e08f8ab3077e137aa8dcd8622e1f890602090a3019091959295610f52565b506111316001611125838a611605565b500154600954906125ce565b421115611083565b50611159611155600361114c848b611605565b50015460ff1690565b1590565b61107d565b5097929a6110de929a9550956110c96001979d98929a959d6125db565b346102295760403660031901126102295760043561119881610218565b60243561123e60018060a01b036111b481600754163314611f67565b8316926111c284151561242c565b825f52600b60205260405f206111ef6111e3855f52600360205260405f2090565b5460058301541161246a565b61121461120883611022875f52600a60205260405f2090565b546006830154116124ab565b61122661121f61210d565b8584612818565b600442910155611022835f52600a60205260405f2090565b6112488154612072565b90556040514281527f8839bc12477bea32ae8418b1076574bbb78e08f8ab3077e137aa8dcd8622e1f89080602081015b0390a3005b34610229575f366003190112610229576005546040516001600160a01b039091168152602090f35b34610229576020366003190112610229576004356112c281610218565b6112ca6127ec565b6001600160a01b03908116906112e182151561242c565b600754826001600160601b0360a01b821617600755167f98a658829c402c9165360ccdcf4bfb731b08f78bcd9aa1b584cc4bbcb90024195f80a3005b346102295760403660031901126102295760043561133a81610218565b6024356113e060018060a01b0361135681600754163314611f67565b8316926113648415156124f7565b825f52600b60205260405f20611391611385855f52600360205260405f2090565b54600583015411612537565b6113b66113aa83611022875f52600a60205260405f2090565b54600683015411612574565b6004429101556113ce6113c761210d565b8483612818565b611022835f52600a60205260405f2090565b61124881546125c0565b34610229575f366003190112610229576020600954604051908152f35b8015150361022957565b346102295760403660031901126102295760043561142e81610218565b60243561143a81611407565b6001600160a01b0382169182156114ac57335f9081526001602090815260408083206001600160a01b039094168352929052209015159060ff1981541660ff83161790556040519081527f17307eab39ab6107e8899845ad3d59bd9653f200f220920489ca2b5937696c3160203392a3005b60405162ced3e160e81b81525f6004820152602490fd5b34610229576114d136610d2f565b90805f52602091600b60205260405f206114f860018060a01b03600783015416331461224e565b81516001918201916001600160401b03821161042b576115228261151c8554611cbf565b8561229a565b602095601f831160011461157857505090610e0f82610e1e94937ff13d465f44b965c642bb908f8b980c33aa5bb1757d23ef75c5c446ca40859a4196975f91610e2357508160011b915f199060031b1c19161790565b9590601f1983169061158d855f5260205f2090565b975f915b8383106115da57505050917ff13d465f44b965c642bb908f8b980c33aa5bb1757d23ef75c5c446ca40859a41959660019282610e1e97969510610e8e575050811b019055610e12565b878501518a55988901989381019391810191611591565b634e487b7160e01b5f52603260045260245ffd5b805482101561161e575f5260205f209060021b01905f90565b6115f1565b346102295760403660031901126102295760043561164081610218565b6001600160a01b03165f908152600c602052604090208054602435908110156102295761166c91611605565b5080546103d060018301549260ff60036002830154920154169060405194859485926060929594919560808501968552602085015260408401521515910152565b34610229576040366003190112610229576004356116ca81610218565b6024359060018060a01b036116e481600754163314611f67565b8116916116f28315156124f7565b611704815f52600b60205260405f2090565b9161172661171a835f52600360205260405f2090565b54600585015411612537565b61174b61173f82611022855f52600a60205260405f2090565b54600685015411612574565b6001600160a01b0381165f908152600c602052604081209093905f5b8154811015611817578461177b8284611605565b505414806117ff575b806117e7575b61179657600101611767565b6117b59495506110b16003916117ab93611605565b6110c960016125db565b6040514281527f8839bc12477bea32ae8418b1076574bbb78e08f8ab3077e137aa8dcd8622e1f8908060208101611278565b506117f760016111258385611605565b42111561178a565b50611812611155600361114c8486611605565b611784565b50506110c96117b593946125db565b346102295760e0366003190112610229576001600160401b0360043581811161022957611857903690600401610505565b9060243581811161022957611870903690600401610505565b9160443582811161022957611889903690600401610505565b60c435928311610229576103d0936118a86118ba943690600401610505565b9260a4359260843592606435926126ad565b6040519081529081906020820190565b346102295760408060031936011261022957600490600435906118ec82610218565b6001600160a01b0382165f908152600c602052604081209260243592915b84548110156105f65761191d8186611605565b508481541480611a45575b80611a2c575b61193b575060010161190a565b9450508092949161195f600360028701965f8854985501600160ff19825416179055565b6008546001600160a01b0316815163a9059cbb60e01b81526001600160a01b03909516938501938452602084810187905294938591859182905f90829060400103925af1938415611a27577f93c496f36ecab5f5583f216646cac3acb12a63aeacddb1a9251ceb81f0ee36e794611278946119e2925f926119fa575b50506127b0565b519384526001600160a01b0316929081906020820190565b611a199250803d10611a20575b611a118183610443565b81019061279b565b5f806119db565b503d611a07565b612053565b50611a3e6001820154600954906125ce565b421161192e565b50611a57611155600383015460ff1690565b611928565b34610229576020366003190112610229576004355f526003602052602060405f2054604051908152f35b34610229575f366003190112610229576007546040516001600160a01b039091168152602090f35b3461022957604036600319011261022957602060ff611b06600435611ad281610218565b60243590611adf82610218565b60018060a01b03165f526001845260405f209060018060a01b03165f5260205260405f2090565b54166040519015158152f35b346102295760a036600319011261022957600435611b2f81610218565b602435611b3b81610218565b6084356001600160401b03811161022957611b5a903690600401610505565b906001600160a01b03838116903382141580611c11575b611bea57821615611bd25715611bbb576105f692611bb36064356044359160405192600184526020840152604083019160018352606084015260808301604052565b929091612902565b604051626a0d4560e21b81525f6004820152602490fd5b604051632bfa23e760e11b81525f6004820152602490fd5b60405163711bec9160e11b81523360048201526001600160a01b0386166024820152604490fd5b505f82815260016020908152604080832033845290915290205460ff1615611b71565b3461022957602036600319011261022957600435611c5181610218565b611c596127ec565b6001600160a01b03908116908115611ca757600554826001600160601b0360a01b821617600555167f8be0079c531659141344cd1fd0a4f28419497f9722a3daafe3b4186f6b6457e05f80a3005b604051631e4fbdf760e01b81525f6004820152602490fd5b90600182811c92168015611ced575b6020831014611cd957565b634e487b7160e01b5f52602260045260245ffd5b91607f1691611cce565b9060405191825f8254611d0981611cbf565b908184526020946001916001811690815f14611d755750600114611d37575b50505061047192500383610443565b5f90815285812095935091905b818310611d5d57505061047193508201015f8080611d28565b85548884018501529485019487945091830191611d44565b9250505061047194925060ff191682840152151560051b8201015f8080611d28565b9592611dc861038c9a9895999693611dba611dd694610120808c528b019061033d565b9089820360208b015261033d565b90878203604089015261033d565b6060860197909752608085015260a084015260c08301526001600160a01b031660e08201528083036101009091015261033d565b34610229576020366003190112610229576004355f52600b60205260405f20611e3281611cf7565b6103d0611e4160018401611cf7565b92611e4e60028201611cf7565b9060038101546004820154600583015490600684015492611e7e600860018060a01b036007880154169601611cf7565b95604051998a998a611d97565b90611e9582610473565b611ea26040519182610443565b8281528092611eb3601f1991610473565b0190602036910137565b805182101561161e5760209160051b010190565b91909180518351808203611f45575050611eeb8151611e8b565b905f5b8151811015611f3e5780611f2c60019260051b5f602080808489010151938b01015182525260405f209060018060a01b03165f5260205260405f2090565b54611f378286611ebd565b5201611eee565b5090925050565b604051635b05999160e01b815260048101919091526024810191909152604490fd5b15611f6e57565b60405162461bcd60e51b815260206004820152601660248201527513db9b1e481c1b185d199bdc9b4818d85b881b5a5b9d60521b6044820152606490fd5b15611fb357565b60405162461bcd60e51b8152602060048201526015602482015274082e4e4c2f240d8cadccee8d040dad2e6dac2e8c6d605b1b6044820152606490fd5b90611ffa82610473565b6120076040519182610443565b8281528092612018601f1991610473565b01905f5b82811061202857505050565b80606060208093850101520161201c565b919081101561161e5760051b0190565b3561038c81610218565b6040513d5f823e3d90fd5b634e487b7160e01b5f52601160045260245ffd5b5f1981146120805760010190565b61205e565b5f9060033d1161209157565b905060045f803e5f5160e01c90565b5f60443d1061038c57604051600319913d83016004833e81516001600160401b03918282113d6024840111176120fc57818401948551938411612104573d850101602084870101116120fc575061038c92910160200190610443565b949350505050565b50949350505050565b60405190602082018281106001600160401b0382111761042b576040525f8252565b60405190604082018281106001600160401b0382111761042b57604052600d82526c2ab735b737bbb71032b93937b960991b6020830152565b9081518082526020808093019301915f5b828110612187575050505090565b83516001600160a01b031685529381019392810192600101612179565b93906121ee92936121d26121c36121e09360a0895260a0890190612168565b602096888203888a01526108fe565b908682036040880152612168565b9084820360608601526108fe565b9160808184039101528251908183528083019281808460051b8301019501935f915b8483106122205750505050505090565b909192939495848061223e600193601f198682030187528a5161033d565b9801930193019194939290612210565b1561225557565b60405162461bcd60e51b815260206004820152601760248201527f4f6e6c792063726561746f722063616e207570646174650000000000000000006044820152606490fd5b601f82116122a757505050565b5f5260205f20906020601f840160051c830193106122df575b601f0160051c01905b8181106122d4575050565b5f81556001016122c9565b90915081906122c0565b91909182516001600160401b03811161042b576123108161230a8454611cbf565b8461229a565b602080601f8311600114612351575081906123429394955f92612346575b50508160011b915f199060031b1c19161790565b9055565b015190505f8061232e565b90601f19831695612365855f5260205f2090565b925f905b8882106123a057505083600195969710612388575b505050811b019055565b01515f1960f88460031b161c191690555f808061237e565b80600185968294968601518155019501930190612369565b9091806040830160408452526060820192905f5b818110612401575050508082036020909101528281526001600160fb1b0383116102295760209260051b809284830137010190565b909193600190853561241281610218565b828060a01b031681526020809101950191019190916123cc565b1561243357565b60405162461bcd60e51b815260206004820152600f60248201526e496e76616c6964206164647265737360881b6044820152606490fd5b1561247157565b60405162461bcd60e51b815260206004820152601260248201527113585e081cdd5c1c1b1e481c995858da195960721b6044820152606490fd5b156124b257565b60405162461bcd60e51b815260206004820152601860248201527f55736572206d696e74206c696d697420657863656564656400000000000000006044820152606490fd5b156124fe57565b60405162461bcd60e51b8152602060048201526011602482015270125b9d985b1a59081c9958da5c1a595b9d607a1b6044820152606490fd5b1561253e57565b60405162461bcd60e51b815260206004820152600e60248201526d4e6f206d6f726520636f7069657360901b6044820152606490fd5b1561257b57565b60405162461bcd60e51b815260206004820152601b60248201527f4d696e74206c696d6974207065722075736572207265616368656400000000006044820152606490fd5b906001820180921161208057565b9190820180921161208057565b156125e257565b60405162461bcd60e51b8152602060048201526016602482015275139bc81d985b1a59081c185e5b595b9d08199bdd5b9960521b6044820152606490fd5b6008610100610471936126348151856122e9565b6126456020820151600186016122e9565b6126566040820151600286016122e9565b606081015160038501556080810151600485015560a0810151600585015560c0810151600685015560e08101516007850180546001600160a01b0319166001600160a01b03909216919091179055015191016122e9565b94909293612764949692966006549761271461270f8a604051612706816126f86020820194334287916054939183526001600160601b03199060601b16602083015260348201520190565b03601f198101835282610443565b5190209a612072565b600655565b61271c610464565b8881526020810196909652604086015260608501525f608085015260a084015260c08301523360e083015261010082015261275f845f52600b60205260405f2090565b612620565b817ffdebc0310a6b95cc7407607cff43505ff0c9282fa00519a8dcefab0ffcf073b56040518061279533958261037b565b0390a390565b90816020910312610229575161038c81611407565b156127b757565b60405162461bcd60e51b815260206004820152600d60248201526c1499599d5b990819985a5b1959609a1b6044820152606490fd5b6005546001600160a01b0316330361280057565b60405163118cdaa760e01b8152336004820152602490fd5b9091906001600160a01b03811615611bd2576040516001808252602091602081019586526040810191808352606093818060608501968188526080860160405261286387878b612d66565b5f935f935b6128aa575b50505050612880612885916004546125ce565b600455565b81510361289c575050610471935190519133612cd5565b915091610471945033612ae0565b9091929386518510156128f9576128ee84918660051b8901906128dc85878401519301515f52600360205260405f2090565b6128e78382546125ce565b90556125ce565b940192919082612868565b9383925061286d565b9193929061291282868386612e7a565b6001600160a01b03838116156129ce575b81161580612970575b15612939575b5050505050565b845160010361295f576020806129559601519201519233612d0a565b5f80808080612932565b61296b94919233612bd9565b612955565b94935f939091845b86518610156129b6576001908660051b906129a7602080848a010151938b0101515f52600360205260405f2090565b82815403905501950194612978565b6129c99193969792955060045403600455565b61292c565b9591925f94915f955b8751871015612a1157612a096001918860051b906128dc602080848c010151938d0101515f52600360205260405f2090565b9601956129d7565b612a29919396506128809098929594986004546125ce565b612923565b90816020910312610229575161038c81610279565b926121e061038c9593612a719360018060a01b031686525f602087015260a0604087015260a08601906108fe565b91608081840391015261033d565b939061038c95936121e091612a719460018060a01b03809216885216602087015260a0604087015260a08601906108fe565b3d15612adb573d90612ac2826104ea565b91612ad06040519384610443565b82523d5f602084013e565b606090565b9293919093843b612af2575050505050565b602091612b15604051948593849363bc197c8160e01b9889865260048601612a43565b03815f6001600160a01b0388165af15f9181612ba8575b50612b6b5782612b3a612ab1565b8051919082612b6457604051632bfa23e760e11b81526001600160a01b0383166004820152602490fd5b9050602001fd5b6001600160e01b03191603612b8557505f80808080612932565b604051632bfa23e760e11b81526001600160a01b03919091166004820152602490fd5b612bcb91925060203d602011612bd2575b612bc38183610443565b810190612a2e565b905f612b2c565b503d612bb9565b939290949194853b612bee575b505050505050565b612c11602093604051958694859463bc197c8160e01b998a875260048701612a7f565b03815f6001600160a01b0388165af15f9181612c51575b50612c365782612b3a612ab1565b6001600160e01b03191603612b8557505f8080808080612be6565b612c6b91925060203d602011612bd257612bc38183610443565b905f612c28565b909260a09261038c9594600180861b031683525f602084015260408301526060820152816080820152019061033d565b919261038c95949160a094600180871b03809216855216602084015260408301526060820152816080820152019061033d565b9293919093843b612ce7575050505050565b602091612b15604051948593849363f23a6e6160e01b9889865260048601612c72565b939290949194853b612d1e57505050505050565b612c11602093604051958694859463f23a6e6160e01b998a875260048701612ca2565b9091612d5861038c936040845260408401906108fe565b9160208184039101526108fe565b9190918251825190818103611f455750505f5b8351811015612ddd57600581901b84810160209081015191850101516001929184906001600160a01b038216612db3575b50505001612d79565b612dd391611022612dcb925f525f60205260405f2090565b9182546125ce565b90555f8381612daa565b509160018151145f14612e3c576020908101519181015160408051938452918301526001600160a01b03909216915f9133917fc3d58168c5ae7397731d063d5bbf3d657854427343f4c083240f7aacaa2d0f629190819081015b0390a4565b7f4a39dc06d4c0dbc64b70af90fd698a233a518aa5d07e595d983b8c0526c8f7fb612e375f939460405191829160018060a01b031696339583612d41565b9392918051835190818103611f455750505f5b8151811015612f7257600581901b82810160209081015191860101516001600160a01b0392918590898516612ef2575b6001948216612ed0575b50505001612e8d565b612ee891611022612dcb925f525f60205260405f2090565b90555f8481612ec7565b9192939050612f0c89611022845f525f60205260405f2090565b54838110612f3b5791869184600196959403612f338c611022855f525f60205260405f2090565b559450612ebd565b6040516303dee4c560e01b81526001600160a01b038b16600482015260248101919091526044810184905260648101839052608490fd5b508051939493919291600103612fd4576020908101519181015160408051938452918301526001600160a01b03928316939092169133917fc3d58168c5ae7397731d063d5bbf3d657854427343f4c083240f7aacaa2d0f629181908101612e37565b6040516001600160a01b03938416949093169233927f4a39dc06d4c0dbc64b70af90fd698a233a518aa5d07e595d983b8c0526c8f7fb928291612e379183612d4156fea264697066735822122090fb992836eac3ca870018361dcd40113392aa005479a9f3300ca13143665cd364736f6c63430008180033","linkReferences":{}},"methodIdentifiers":{"_safeFreeMint(address,uint256)":"85cd3e64","balanceOf(address,uint256)":"00fdd58e","balanceOfBatch(address[],uint256[])":"4e1273f4","batchFreeMint(address[],uint256[])":"5160eb7d","batchMintChapter(address[],uint256[])":"75709492","createChapter(string,string,string,uint256,uint256,uint256,string)":"adac14ea","exists(uint256)":"4f558e79","freeMint(address,uint256)":"9883566e","getChapterInfo(uint256)":"4a51e896","isApprovedForAll(address,address)":"e985e9c5","mangaChapters(uint256)":"fd0f5a59","mintChapter(address,uint256)":"ad31fa71","mintTimeout()":"994dddcd","mintedPerUser(uint256,address)":"0a290951","owner()":"8da5cb5b","paymentToken()":"3013ce29","payments(address,uint256)":"ab63385c","platformAddress()":"dbe55e56","refundIfExpired(address,uint256)":"bd396c76","renounceOwnership()":"715018a6","safeBatchTransferFrom(address,address,uint256[],uint256[],bytes)":"2eb2c2d6","safeTransferFrom(address,address,uint256,uint256,bytes)":"f242432a","setApprovalForAll(address,bool)":"a22cb465","supportsInterface(bytes4)":"01ffc9a7","totalSupply()":"18160ddd","totalSupply(uint256)":"bd85b039","transferOwnership(address)":"f2fde38b","updateChapterDescription(uint256,string)":"a5169404","updateMangaTitle(uint256,string)":"613e019a","updatePaymentToken(address)":"4ccf1b34","updatePlatformAddress(address)":"8f9f193f","uri(uint256)":"0e89341c"},"id":35}